{
  "_format": "hh-sol-artifact-1",
  "contractName": "FileNFT",
  "sourceName": "contracts/kezayya.sol",
  "abi": [
    {
      "inputs": [],
      "stateMutability": "nonpayable",
      "type": "constructor"
    },
    {
      "anonymous": false,
      "inputs": [
        {
          "indexed": true,
          "internalType": "address",
          "name": "owner",
          "type": "address"
        },
        {
          "indexed": true,
          "internalType": "address",
          "name": "approved",
          "type": "address"
        },
        {
          "indexed": true,
          "internalType": "uint256",
          "name": "tokenId",
          "type": "uint256"
        }
      ],
      "name": "Approval",
      "type": "event"
    },
    {
      "anonymous": false,
      "inputs": [
        {
          "indexed": true,
          "internalType": "address",
          "name": "owner",
          "type": "address"
        },
        {
          "indexed": true,
          "internalType": "address",
          "name": "operator",
          "type": "address"
        },
        {
          "indexed": false,
          "internalType": "bool",
          "name": "approved",
          "type": "bool"
        }
      ],
      "name": "ApprovalForAll",
      "type": "event"
    },
    {
      "anonymous": false,
      "inputs": [
        {
          "indexed": false,
          "internalType": "address",
          "name": "account",
          "type": "address"
        }
      ],
      "name": "MonthlyPaymentMade",
      "type": "event"
    },
    {
      "anonymous": false,
      "inputs": [
        {
          "indexed": true,
          "internalType": "uint256",
          "name": "tokenId",
          "type": "uint256"
        },
        {
          "indexed": false,
          "internalType": "address",
          "name": "owner",
          "type": "address"
        },
        {
          "indexed": false,
          "internalType": "address",
          "name": "storageDrive",
          "type": "address"
        },
        {
          "indexed": false,
          "internalType": "bool",
          "name": "shared",
          "type": "bool"
        }
      ],
      "name": "StorageItemCreated",
      "type": "event"
    },
    {
      "anonymous": false,
      "inputs": [
        {
          "indexed": false,
          "internalType": "address",
          "name": "account",
          "type": "address"
        }
      ],
      "name": "SubscriptionMade",
      "type": "event"
    },
    {
      "anonymous": false,
      "inputs": [
        {
          "indexed": true,
          "internalType": "address",
          "name": "from",
          "type": "address"
        },
        {
          "indexed": true,
          "internalType": "address",
          "name": "to",
          "type": "address"
        },
        {
          "indexed": true,
          "internalType": "uint256",
          "name": "tokenId",
          "type": "uint256"
        }
      ],
      "name": "Transfer",
      "type": "event"
    },
    {
      "inputs": [
        {
          "internalType": "address",
          "name": "to",
          "type": "address"
        },
        {
          "internalType": "uint256",
          "name": "tokenId",
          "type": "uint256"
        }
      ],
      "name": "approve",
      "outputs": [],
      "stateMutability": "nonpayable",
      "type": "function"
    },
    {
      "inputs": [
        {
          "internalType": "address",
          "name": "owner",
          "type": "address"
        }
      ],
      "name": "balanceOf",
      "outputs": [
        {
          "internalType": "uint256",
          "name": "",
          "type": "uint256"
        }
      ],
      "stateMutability": "view",
      "type": "function"
    },
    {
      "inputs": [
        {
          "internalType": "string",
          "name": "tokenURI",
          "type": "string"
        }
      ],
      "name": "createFile",
      "outputs": [
        {
          "internalType": "uint256",
          "name": "",
          "type": "uint256"
        }
      ],
      "stateMutability": "payable",
      "type": "function"
    },
    {
      "inputs": [
        {
          "internalType": "uint256",
          "name": "tokenId",
          "type": "uint256"
        }
      ],
      "name": "createFileShare",
      "outputs": [],
      "stateMutability": "payable",
      "type": "function"
    },
    {
      "inputs": [],
      "name": "fetchAllStorageItems",
      "outputs": [
        {
          "components": [
            {
              "internalType": "uint256",
              "name": "tokenId",
              "type": "uint256"
            },
            {
              "internalType": "address",
              "name": "owner",
              "type": "address"
            },
            {
              "internalType": "address",
              "name": "storageDrive",
              "type": "address"
            },
            {
              "internalType": "bool",
              "name": "shared",
              "type": "bool"
            }
          ],
          "internalType": "struct FileNFT.StorageItem[]",
          "name": "",
          "type": "tuple[]"
        }
      ],
      "stateMutability": "view",
      "type": "function"
    },
    {
      "inputs": [],
      "name": "fetchMyFiles",
      "outputs": [
        {
          "components": [
            {
              "internalType": "uint256",
              "name": "tokenId",
              "type": "uint256"
            },
            {
              "internalType": "address",
              "name": "owner",
              "type": "address"
            },
            {
              "internalType": "address",
              "name": "storageDrive",
              "type": "address"
            },
            {
              "internalType": "bool",
              "name": "shared",
              "type": "bool"
            }
          ],
          "internalType": "struct FileNFT.StorageItem[]",
          "name": "",
          "type": "tuple[]"
        }
      ],
      "stateMutability": "view",
      "type": "function"
    },
    {
      "inputs": [
        {
          "internalType": "uint256",
          "name": "tokenId",
          "type": "uint256"
        }
      ],
      "name": "getApproved",
      "outputs": [
        {
          "internalType": "address",
          "name": "",
          "type": "address"
        }
      ],
      "stateMutability": "view",
      "type": "function"
    },
    {
      "inputs": [
        {
          "internalType": "address",
          "name": "owner",
          "type": "address"
        },
        {
          "internalType": "address",
          "name": "operator",
          "type": "address"
        }
      ],
      "name": "isApprovedForAll",
      "outputs": [
        {
          "internalType": "bool",
          "name": "",
          "type": "bool"
        }
      ],
      "stateMutability": "view",
      "type": "function"
    },
    {
      "inputs": [],
      "name": "name",
      "outputs": [
        {
          "internalType": "string",
          "name": "",
          "type": "string"
        }
      ],
      "stateMutability": "view",
      "type": "function"
    },
    {
      "inputs": [
        {
          "internalType": "uint256",
          "name": "tokenId",
          "type": "uint256"
        }
      ],
      "name": "ownerOf",
      "outputs": [
        {
          "internalType": "address",
          "name": "",
          "type": "address"
        }
      ],
      "stateMutability": "view",
      "type": "function"
    },
    {
      "inputs": [],
      "name": "payMonthlyValue",
      "outputs": [],
      "stateMutability": "payable",
      "type": "function"
    },
    {
      "inputs": [
        {
          "internalType": "address",
          "name": "from",
          "type": "address"
        },
        {
          "internalType": "address",
          "name": "to",
          "type": "address"
        },
        {
          "internalType": "uint256",
          "name": "tokenId",
          "type": "uint256"
        }
      ],
      "name": "safeTransferFrom",
      "outputs": [],
      "stateMutability": "nonpayable",
      "type": "function"
    },
    {
      "inputs": [
        {
          "internalType": "address",
          "name": "from",
          "type": "address"
        },
        {
          "internalType": "address",
          "name": "to",
          "type": "address"
        },
        {
          "internalType": "uint256",
          "name": "tokenId",
          "type": "uint256"
        },
        {
          "internalType": "bytes",
          "name": "data",
          "type": "bytes"
        }
      ],
      "name": "safeTransferFrom",
      "outputs": [],
      "stateMutability": "nonpayable",
      "type": "function"
    },
    {
      "inputs": [
        {
          "internalType": "address",
          "name": "operator",
          "type": "address"
        },
        {
          "internalType": "bool",
          "name": "approved",
          "type": "bool"
        }
      ],
      "name": "setApprovalForAll",
      "outputs": [],
      "stateMutability": "nonpayable",
      "type": "function"
    },
    {
      "inputs": [],
      "name": "subscribe",
      "outputs": [],
      "stateMutability": "payable",
      "type": "function"
    },
    {
      "inputs": [
        {
          "internalType": "bytes4",
          "name": "interfaceId",
          "type": "bytes4"
        }
      ],
      "name": "supportsInterface",
      "outputs": [
        {
          "internalType": "bool",
          "name": "",
          "type": "bool"
        }
      ],
      "stateMutability": "view",
      "type": "function"
    },
    {
      "inputs": [],
      "name": "symbol",
      "outputs": [
        {
          "internalType": "string",
          "name": "",
          "type": "string"
        }
      ],
      "stateMutability": "view",
      "type": "function"
    },
    {
      "inputs": [
        {
          "internalType": "uint256",
          "name": "tokenId",
          "type": "uint256"
        }
      ],
      "name": "tokenURI",
      "outputs": [
        {
          "internalType": "string",
          "name": "",
          "type": "string"
        }
      ],
      "stateMutability": "view",
      "type": "function"
    },
    {
      "inputs": [
        {
          "internalType": "address",
          "name": "from",
          "type": "address"
        },
        {
          "internalType": "address",
          "name": "to",
          "type": "address"
        },
        {
          "internalType": "uint256",
          "name": "tokenId",
          "type": "uint256"
        }
      ],
      "name": "transferFrom",
      "outputs": [],
      "stateMutability": "nonpayable",
      "type": "function"
    },
    {
      "inputs": [
        {
          "internalType": "uint256",
          "name": "value",
          "type": "uint256"
        }
      ],
      "name": "withdraw",
      "outputs": [],
      "stateMutability": "nonpayable",
      "type": "function"
    }
  ],
  "bytecode": "0x60806040523480156200001157600080fd5b50604051806040016040528060078152602001664b657a6179796160c81b815250604051806040016040528060078152602001664b455a4159594160c81b815250816000908162000063919062000139565b50600162000072828262000139565b5050600a80546001600160a01b0319163317905550620186a060095562000205565b634e487b7160e01b600052604160045260246000fd5b600181811c90821680620000bf57607f821691505b602082108103620000e057634e487b7160e01b600052602260045260246000fd5b50919050565b601f8211156200013457600081815260208120601f850160051c810160208610156200010f5750805b601f850160051c820191505b8181101562000130578281556001016200011b565b5050505b505050565b81516001600160401b0381111562000155576200015562000094565b6200016d81620001668454620000aa565b84620000e6565b602080601f831160018114620001a557600084156200018c5750858301515b600019600386901b1c1916600185901b17855562000130565b600085815260208120601f198616915b82811015620001d657888601518255948401946001909101908401620001b5565b5085821015620001f55787850151600019600388901b60f8161c191681555b5050505050600190811b01905550565b611ef680620002156000396000f3fe60806040526004361061011f5760003560e01c80634dfdc4fb116100a057806395d89b411161006457806395d89b41146102f0578063a22cb46514610305578063b88d4fde14610325578063c87b56dd14610345578063e985e9c51461036557600080fd5b80634dfdc4fb146102725780636352211e1461029357806370a08231146102b35780638f449a05146102d3578063957b5ba3146102db57600080fd5b806323b872dd116100e757806323b872dd146101e85780632e1a7d4d14610208578063347cfeab1461022857806337a899861461023057806342842e0e1461025257600080fd5b806301ffc9a71461012457806306fdde03146101595780630778fa4d1461017b578063081812fc14610190578063095ea7b3146101c8575b600080fd5b34801561013057600080fd5b5061014461013f36600461184b565b610385565b60405190151581526020015b60405180910390f35b34801561016557600080fd5b5061016e6103d7565b60405161015091906118b8565b61018e6101893660046118cb565b610469565b005b34801561019c57600080fd5b506101b06101ab3660046118cb565b61049c565b6040516001600160a01b039091168152602001610150565b3480156101d457600080fd5b5061018e6101e3366004611900565b6104c3565b3480156101f457600080fd5b5061018e61020336600461192a565b6105dd565b34801561021457600080fd5b5061018e6102233660046118cb565b61060e565b61018e610755565b34801561023c57600080fd5b50610245610823565b6040516101509190611966565b34801561025e57600080fd5b5061018e61026d36600461192a565b610990565b610285610280366004611a64565b6109ab565b604051908152602001610150565b34801561029f57600080fd5b506101b06102ae3660046118cb565b6109e5565b3480156102bf57600080fd5b506102856102ce366004611aad565b610a45565b61018e610acb565b3480156102e757600080fd5b50610245610b76565b3480156102fc57600080fd5b5061016e610d44565b34801561031157600080fd5b5061018e610320366004611ac8565b610d53565b34801561033157600080fd5b5061018e610340366004611b04565b610d5e565b34801561035157600080fd5b5061016e6103603660046118cb565b610d96565b34801561037157600080fd5b50610144610380366004611b80565b610ea6565b60006001600160e01b031982166380ac58cd60e01b14806103b657506001600160e01b03198216635b5e139f60e01b145b806103d157506301ffc9a760e01b6001600160e01b03198316145b92915050565b6060600080546103e690611bb3565b80601f016020809104026020016040519081016040528092919081815260200182805461041290611bb3565b801561045f5780601f106104345761010080835404028352916020019161045f565b820191906000526020600020905b81548152906001019060200180831161044257829003601f168201915b5050505050905090565b6000818152600c60205260409020600201805460ff60a01b1916600160a01b179055610499600880546001019055565b50565b60006104a782610ed4565b506000908152600460205260409020546001600160a01b031690565b60006104ce826109e5565b9050806001600160a01b0316836001600160a01b0316036105405760405162461bcd60e51b815260206004820152602160248201527f4552433732313a20617070726f76616c20746f2063757272656e74206f776e656044820152603960f91b60648201526084015b60405180910390fd5b336001600160a01b038216148061055c575061055c8133610ea6565b6105ce5760405162461bcd60e51b815260206004820152603d60248201527f4552433732313a20617070726f76652063616c6c6572206973206e6f7420746f60448201527f6b656e206f776e6572206f7220617070726f76656420666f7220616c6c0000006064820152608401610537565b6105d88383610f33565b505050565b6105e73382610fa1565b6106035760405162461bcd60e51b815260040161053790611bed565b6105d8838383610fff565b600a546001600160a01b031633146106685760405162461bcd60e51b815260206004820152601860248201527f41646472657373206973206e6f7420746865206f776e657200000000000000006044820152606401610537565b478111156106b85760405162461bcd60e51b815260206004820152601a60248201527f56616c756520686967686572207468616e2062616c616e63652e0000000000006044820152606401610537565b600a546040516000916001600160a01b03169083908381818185875af1925050503d8060008114610705576040519150601f19603f3d011682016040523d82523d6000602084013e61070a565b606091505b50509050806107515760405162461bcd60e51b815260206004820152601360248201527254686572652077617320616e206572726f722160681b6044820152606401610537565b5050565b336000908152600b602052604090205460ff166107ad5760405162461bcd60e51b81526020600482015260166024820152751058d8dbdd5b9d081b9bdd081cdd589cd8dc9a58995960521b6044820152606401610537565b60095434146107ed5760405162461bcd60e51b815260206004820152600c60248201526b2bb937b733903b30b63ab29760a11b6044820152606401610537565b6040513381527f342391d881b260faba344bcdceb81718335063790ef64b017dfe1fbec5eb7d91906020015b60405180910390a1565b6060600061083060075490565b90506000808267ffffffffffffffff81111561084e5761084e6119d8565b6040519080825280602002602001820160405280156108a057816020015b60408051608081018252600080825260208083018290529282018190526060820152825260001990920191018161086c5790505b50905060005b838110156109885730600c60006108be846001611c50565b81526020810191909152604001600020600201546001600160a01b0316036109765760006108ed826001611c50565b6000818152600c602090815260409182902082516080810184528154815260018201546001600160a01b0390811693820193909352600282015492831693810193909352600160a01b90910460ff161515606083015285519293509185908790811061095b5761095b611c63565b6020908102919091010152610971600186611c50565b945050505b8061098081611c79565b9150506108a6565b509392505050565b6105d883838360405180602001604052806000815250610d5e565b60006109bb600780546001019055565b60006109c660075490565b90506109d23382611163565b6109dc81846112ee565b6103d181611381565b6000818152600260205260408120546001600160a01b0316806103d15760405162461bcd60e51b8152602060048201526018602482015277115490cdcc8c4e881a5b9d985b1a59081d1bdad95b88125160421b6044820152606401610537565b60006001600160a01b038216610aaf5760405162461bcd60e51b815260206004820152602960248201527f4552433732313a2061646472657373207a65726f206973206e6f7420612076616044820152683634b21037bbb732b960b91b6064820152608401610537565b506001600160a01b031660009081526003602052604090205490565b336000908152600b602052604090205460ff1615610b2b5760405162461bcd60e51b815260206004820152601a60248201527f4163636f756e7420616c726561647920737562736372696265640000000000006044820152606401610537565b336000818152600b6020908152604091829020805460ff1916600117905590519182527f0a4aaad73235c04f36913f1a722df062186fab3d31654a6d28265e505d9e16139101610819565b60606000610b8360075490565b905060008060005b83811015610be55733600c6000610ba3846001611c50565b81526020810191909152604001600020600101546001600160a01b031603610bd357610bd0600184611c50565b92505b80610bdd81611c79565b915050610b8b565b5060008267ffffffffffffffff811115610c0157610c016119d8565b604051908082528060200260200182016040528015610c5357816020015b604080516080810182526000808252602080830182905292820181905260608201528252600019909201910181610c1f5790505b50905060005b84811015610d3b5733600c6000610c71846001611c50565b81526020810191909152604001600020600101546001600160a01b031603610d29576000610ca0826001611c50565b6000818152600c602090815260409182902082516080810184528154815260018201546001600160a01b0390811693820193909352600282015492831693810193909352600160a01b90910460ff1615156060830152855192935091859087908110610d0e57610d0e611c63565b6020908102919091010152610d24600186611c50565b945050505b80610d3381611c79565b915050610c59565b50949350505050565b6060600180546103e690611bb3565b610751338383611454565b610d683383610fa1565b610d845760405162461bcd60e51b815260040161053790611bed565b610d9084848484611522565b50505050565b6060610da182610ed4565b60008281526006602052604081208054610dba90611bb3565b80601f0160208091040260200160405190810160405280929190818152602001828054610de690611bb3565b8015610e335780601f10610e0857610100808354040283529160200191610e33565b820191906000526020600020905b815481529060010190602001808311610e1657829003601f168201915b505050505090506000610e5160408051602081019091526000815290565b90508051600003610e63575092915050565b815115610e95578082604051602001610e7d929190611c92565b60405160208183030381529060405292505050919050565b610e9e84611555565b949350505050565b6001600160a01b03918216600090815260056020908152604080832093909416825291909152205460ff1690565b6000818152600260205260409020546001600160a01b03166104995760405162461bcd60e51b8152602060048201526018602482015277115490cdcc8c4e881a5b9d985b1a59081d1bdad95b88125160421b6044820152606401610537565b600081815260046020526040902080546001600160a01b0319166001600160a01b0384169081179091558190610f68826109e5565b6001600160a01b03167f8c5be1e5ebec7d5bd14f71427d1e84f3dd0314c0f7b2291e5b200ac8c7c3b92560405160405180910390a45050565b600080610fad836109e5565b9050806001600160a01b0316846001600160a01b03161480610fd45750610fd48185610ea6565b80610e9e5750836001600160a01b0316610fed8461049c565b6001600160a01b031614949350505050565b826001600160a01b0316611012826109e5565b6001600160a01b0316146110385760405162461bcd60e51b815260040161053790611cc1565b6001600160a01b03821661109a5760405162461bcd60e51b8152602060048201526024808201527f4552433732313a207472616e7366657220746f20746865207a65726f206164646044820152637265737360e01b6064820152608401610537565b826001600160a01b03166110ad826109e5565b6001600160a01b0316146110d35760405162461bcd60e51b815260040161053790611cc1565b600081815260046020908152604080832080546001600160a01b03199081169091556001600160a01b0387811680865260038552838620805460001901905590871680865283862080546001019055868652600290945282852080549092168417909155905184937fddf252ad1be2c89b69c2b068fc378daa952ba7f163c4a11628f55a4df523b3ef91a4505050565b6001600160a01b0382166111b95760405162461bcd60e51b815260206004820181905260248201527f4552433732313a206d696e7420746f20746865207a65726f20616464726573736044820152606401610537565b6000818152600260205260409020546001600160a01b03161561121e5760405162461bcd60e51b815260206004820152601c60248201527f4552433732313a20746f6b656e20616c7265616479206d696e746564000000006044820152606401610537565b6000818152600260205260409020546001600160a01b0316156112835760405162461bcd60e51b815260206004820152601c60248201527f4552433732313a20746f6b656e20616c7265616479206d696e746564000000006044820152606401610537565b6001600160a01b038216600081815260036020908152604080832080546001019055848352600290915280822080546001600160a01b0319168417905551839291907fddf252ad1be2c89b69c2b068fc378daa952ba7f163c4a11628f55a4df523b3ef908290a45050565b6000828152600260205260409020546001600160a01b03166113695760405162461bcd60e51b815260206004820152602e60248201527f45524337323155524953746f726167653a2055524920736574206f66206e6f6e60448201526d32bc34b9ba32b73a103a37b5b2b760911b6064820152608401610537565b60008281526006602052604090206105d88282611d54565b6040805160808101825282815233602080830182815230848601818152600060608701818152898252600c909552969096209451855590516001850180546001600160a01b039283166001600160a01b031990911617905594516002909401805492511515600160a01b026001600160a81b031990931694909516939093171790925561140f919083610fff565b60408051338152306020820152600081830152905182917fa68363aa99d6435522e6dc97031114bda913322276d4240fb702c2543bbfd86b919081900360600190a250565b816001600160a01b0316836001600160a01b0316036114b55760405162461bcd60e51b815260206004820152601960248201527f4552433732313a20617070726f766520746f2063616c6c6572000000000000006044820152606401610537565b6001600160a01b03838116600081815260056020908152604080832094871680845294825291829020805460ff191686151590811790915591519182527f17307eab39ab6107e8899845ad3d59bd9653f200f220920489ca2b5937696c31910160405180910390a3505050565b61152d848484610fff565b611539848484846115c9565b610d905760405162461bcd60e51b815260040161053790611e14565b606061156082610ed4565b600061157760408051602081019091526000815290565b9050600081511161159757604051806020016040528060008152506115c2565b806115a1846116ca565b6040516020016115b2929190611c92565b6040516020818303038152906040525b9392505050565b60006001600160a01b0384163b156116bf57604051630a85bd0160e11b81526001600160a01b0385169063150b7a029061160d903390899088908890600401611e66565b6020604051808303816000875af1925050508015611648575060408051601f3d908101601f1916820190925261164591810190611ea3565b60015b6116a5573d808015611676576040519150601f19603f3d011682016040523d82523d6000602084013e61167b565b606091505b50805160000361169d5760405162461bcd60e51b815260040161053790611e14565b805181602001fd5b6001600160e01b031916630a85bd0160e11b149050610e9e565b506001949350505050565b606060006116d78361175d565b600101905060008167ffffffffffffffff8111156116f7576116f76119d8565b6040519080825280601f01601f191660200182016040528015611721576020820181803683370190505b5090508181016020015b600019016f181899199a1a9b1b9c1cb0b131b232b360811b600a86061a8153600a850494508461172b57509392505050565b60008072184f03e93ff9f4daa797ed6e38ed64bf6a1f0160401b831061179c5772184f03e93ff9f4daa797ed6e38ed64bf6a1f0160401b830492506040015b6d04ee2d6d415b85acef810000000083106117c8576d04ee2d6d415b85acef8100000000830492506020015b662386f26fc1000083106117e657662386f26fc10000830492506010015b6305f5e10083106117fe576305f5e100830492506008015b612710831061181257612710830492506004015b60648310611824576064830492506002015b600a83106103d15760010192915050565b6001600160e01b03198116811461049957600080fd5b60006020828403121561185d57600080fd5b81356115c281611835565b60005b8381101561188357818101518382015260200161186b565b50506000910152565b600081518084526118a4816020860160208601611868565b601f01601f19169290920160200192915050565b6020815260006115c2602083018461188c565b6000602082840312156118dd57600080fd5b5035919050565b80356001600160a01b03811681146118fb57600080fd5b919050565b6000806040838503121561191357600080fd5b61191c836118e4565b946020939093013593505050565b60008060006060848603121561193f57600080fd5b611948846118e4565b9250611956602085016118e4565b9150604084013590509250925092565b602080825282518282018190526000919060409081850190868401855b828110156119cb57815180518552868101516001600160a01b039081168887015286820151168686015260609081015115159085015260809093019290850190600101611983565b5091979650505050505050565b634e487b7160e01b600052604160045260246000fd5b600067ffffffffffffffff80841115611a0957611a096119d8565b604051601f8501601f19908116603f01168101908282118183101715611a3157611a316119d8565b81604052809350858152868686011115611a4a57600080fd5b858560208301376000602087830101525050509392505050565b600060208284031215611a7657600080fd5b813567ffffffffffffffff811115611a8d57600080fd5b8201601f81018413611a9e57600080fd5b610e9e848235602084016119ee565b600060208284031215611abf57600080fd5b6115c2826118e4565b60008060408385031215611adb57600080fd5b611ae4836118e4565b915060208301358015158114611af957600080fd5b809150509250929050565b60008060008060808587031215611b1a57600080fd5b611b23856118e4565b9350611b31602086016118e4565b925060408501359150606085013567ffffffffffffffff811115611b5457600080fd5b8501601f81018713611b6557600080fd5b611b74878235602084016119ee565b91505092959194509250565b60008060408385031215611b9357600080fd5b611b9c836118e4565b9150611baa602084016118e4565b90509250929050565b600181811c90821680611bc757607f821691505b602082108103611be757634e487b7160e01b600052602260045260246000fd5b50919050565b6020808252602d908201527f4552433732313a2063616c6c6572206973206e6f7420746f6b656e206f776e6560408201526c1c881bdc88185c1c1c9bdd9959609a1b606082015260800190565b634e487b7160e01b600052601160045260246000fd5b808201808211156103d1576103d1611c3a565b634e487b7160e01b600052603260045260246000fd5b600060018201611c8b57611c8b611c3a565b5060010190565b60008351611ca4818460208801611868565b835190830190611cb8818360208801611868565b01949350505050565b60208082526025908201527f4552433732313a207472616e736665722066726f6d20696e636f72726563742060408201526437bbb732b960d91b606082015260800190565b601f8211156105d857600081815260208120601f850160051c81016020861015611d2d5750805b601f850160051c820191505b81811015611d4c57828155600101611d39565b505050505050565b815167ffffffffffffffff811115611d6e57611d6e6119d8565b611d8281611d7c8454611bb3565b84611d06565b602080601f831160018114611db75760008415611d9f5750858301515b600019600386901b1c1916600185901b178555611d4c565b600085815260208120601f198616915b82811015611de657888601518255948401946001909101908401611dc7565b5085821015611e045787850151600019600388901b60f8161c191681555b5050505050600190811b01905550565b60208082526032908201527f4552433732313a207472616e7366657220746f206e6f6e20455243373231526560408201527131b2b4bb32b91034b6b83632b6b2b73a32b960711b606082015260800190565b6001600160a01b0385811682528416602082015260408101839052608060608201819052600090611e999083018461188c565b9695505050505050565b600060208284031215611eb557600080fd5b81516115c28161183556fea264697066735822122014ee95c7c300ef823bad33685b7698cd4a9742631c274efa05744471c355460264736f6c63430008110033",
  "linkReferences": {},
  "deployedLinkReferences": {}
}