{
  "_format": "hh-sol-artifact-1",
  "contractName": "userTable",
  "sourceName": "contracts/UserTable.sol",
  "abi": [
    {
      "inputs": [],
      "stateMutability": "nonpayable",
      "type": "constructor"
    },
    {
      "anonymous": false,
      "inputs": [
        {
          "indexed": true,
          "internalType": "address",
          "name": "owner",
          "type": "address"
        },
        {
          "indexed": true,
          "internalType": "address",
          "name": "approved",
          "type": "address"
        },
        {
          "indexed": true,
          "internalType": "uint256",
          "name": "tokenId",
          "type": "uint256"
        }
      ],
      "name": "Approval",
      "type": "event"
    },
    {
      "anonymous": false,
      "inputs": [
        {
          "indexed": true,
          "internalType": "address",
          "name": "owner",
          "type": "address"
        },
        {
          "indexed": true,
          "internalType": "address",
          "name": "operator",
          "type": "address"
        },
        {
          "indexed": false,
          "internalType": "bool",
          "name": "approved",
          "type": "bool"
        }
      ],
      "name": "ApprovalForAll",
      "type": "event"
    },
    {
      "anonymous": false,
      "inputs": [
        {
          "indexed": true,
          "internalType": "address",
          "name": "from",
          "type": "address"
        },
        {
          "indexed": true,
          "internalType": "address",
          "name": "to",
          "type": "address"
        },
        {
          "indexed": true,
          "internalType": "uint256",
          "name": "tokenId",
          "type": "uint256"
        }
      ],
      "name": "Transfer",
      "type": "event"
    },
    {
      "inputs": [
        {
          "internalType": "address",
          "name": "to",
          "type": "address"
        },
        {
          "internalType": "uint256",
          "name": "tokenId",
          "type": "uint256"
        }
      ],
      "name": "approve",
      "outputs": [],
      "stateMutability": "nonpayable",
      "type": "function"
    },
    {
      "inputs": [
        {
          "internalType": "address",
          "name": "owner",
          "type": "address"
        }
      ],
      "name": "balanceOf",
      "outputs": [
        {
          "internalType": "uint256",
          "name": "",
          "type": "uint256"
        }
      ],
      "stateMutability": "view",
      "type": "function"
    },
    {
      "inputs": [],
      "name": "getAllFiles",
      "outputs": [
        {
          "components": [
            {
              "internalType": "uint256",
              "name": "fileIndex",
              "type": "uint256"
            },
            {
              "internalType": "string",
              "name": "name",
              "type": "string"
            },
            {
              "internalType": "string",
              "name": "imageURI",
              "type": "string"
            },
            {
              "internalType": "uint256",
              "name": "forAll",
              "type": "uint256"
            },
            {
              "internalType": "bool",
              "name": "sharable",
              "type": "bool"
            }
          ],
          "internalType": "struct userTable.FileDetails[]",
          "name": "",
          "type": "tuple[]"
        }
      ],
      "stateMutability": "view",
      "type": "function"
    },
    {
      "inputs": [
        {
          "internalType": "uint256",
          "name": "tokenId",
          "type": "uint256"
        }
      ],
      "name": "getApproved",
      "outputs": [
        {
          "internalType": "address",
          "name": "",
          "type": "address"
        }
      ],
      "stateMutability": "view",
      "type": "function"
    },
    {
      "inputs": [],
      "name": "getCounter",
      "outputs": [
        {
          "internalType": "uint256",
          "name": "",
          "type": "uint256"
        }
      ],
      "stateMutability": "view",
      "type": "function"
    },
    {
      "inputs": [],
      "name": "getUserFiless",
      "outputs": [
        {
          "internalType": "uint256[]",
          "name": "",
          "type": "uint256[]"
        }
      ],
      "stateMutability": "view",
      "type": "function"
    },
    {
      "inputs": [
        {
          "internalType": "address",
          "name": "owner",
          "type": "address"
        },
        {
          "internalType": "address",
          "name": "operator",
          "type": "address"
        }
      ],
      "name": "isApprovedForAll",
      "outputs": [
        {
          "internalType": "bool",
          "name": "",
          "type": "bool"
        }
      ],
      "stateMutability": "view",
      "type": "function"
    },
    {
      "inputs": [
        {
          "internalType": "uint256",
          "name": "_characterIndex",
          "type": "uint256"
        }
      ],
      "name": "mintFileNFT",
      "outputs": [],
      "stateMutability": "nonpayable",
      "type": "function"
    },
    {
      "inputs": [],
      "name": "name",
      "outputs": [
        {
          "internalType": "string",
          "name": "",
          "type": "string"
        }
      ],
      "stateMutability": "view",
      "type": "function"
    },
    {
      "inputs": [
        {
          "internalType": "uint256",
          "name": "",
          "type": "uint256"
        }
      ],
      "name": "nftHolders",
      "outputs": [
        {
          "internalType": "address",
          "name": "",
          "type": "address"
        }
      ],
      "stateMutability": "view",
      "type": "function"
    },
    {
      "inputs": [
        {
          "internalType": "address",
          "name": "",
          "type": "address"
        },
        {
          "internalType": "uint256",
          "name": "",
          "type": "uint256"
        }
      ],
      "name": "ownerItems",
      "outputs": [
        {
          "internalType": "uint256",
          "name": "",
          "type": "uint256"
        }
      ],
      "stateMutability": "view",
      "type": "function"
    },
    {
      "inputs": [
        {
          "internalType": "uint256",
          "name": "tokenId",
          "type": "uint256"
        }
      ],
      "name": "ownerOf",
      "outputs": [
        {
          "internalType": "address",
          "name": "",
          "type": "address"
        }
      ],
      "stateMutability": "view",
      "type": "function"
    },
    {
      "inputs": [
        {
          "internalType": "address",
          "name": "from",
          "type": "address"
        },
        {
          "internalType": "address",
          "name": "to",
          "type": "address"
        },
        {
          "internalType": "uint256",
          "name": "tokenId",
          "type": "uint256"
        }
      ],
      "name": "safeTransferFrom",
      "outputs": [],
      "stateMutability": "nonpayable",
      "type": "function"
    },
    {
      "inputs": [
        {
          "internalType": "address",
          "name": "from",
          "type": "address"
        },
        {
          "internalType": "address",
          "name": "to",
          "type": "address"
        },
        {
          "internalType": "uint256",
          "name": "tokenId",
          "type": "uint256"
        },
        {
          "internalType": "bytes",
          "name": "data",
          "type": "bytes"
        }
      ],
      "name": "safeTransferFrom",
      "outputs": [],
      "stateMutability": "nonpayable",
      "type": "function"
    },
    {
      "inputs": [
        {
          "internalType": "address",
          "name": "operator",
          "type": "address"
        },
        {
          "internalType": "bool",
          "name": "approved",
          "type": "bool"
        }
      ],
      "name": "setApprovalForAll",
      "outputs": [],
      "stateMutability": "nonpayable",
      "type": "function"
    },
    {
      "inputs": [
        {
          "internalType": "string",
          "name": "BaseURI",
          "type": "string"
        }
      ],
      "name": "setBaseURI",
      "outputs": [],
      "stateMutability": "nonpayable",
      "type": "function"
    },
    {
      "inputs": [
        {
          "internalType": "bytes4",
          "name": "interfaceId",
          "type": "bytes4"
        }
      ],
      "name": "supportsInterface",
      "outputs": [
        {
          "internalType": "bool",
          "name": "",
          "type": "bool"
        }
      ],
      "stateMutability": "view",
      "type": "function"
    },
    {
      "inputs": [],
      "name": "symbol",
      "outputs": [
        {
          "internalType": "string",
          "name": "",
          "type": "string"
        }
      ],
      "stateMutability": "view",
      "type": "function"
    },
    {
      "inputs": [],
      "name": "tokenCounter",
      "outputs": [
        {
          "internalType": "uint256",
          "name": "",
          "type": "uint256"
        }
      ],
      "stateMutability": "view",
      "type": "function"
    },
    {
      "inputs": [
        {
          "internalType": "uint256",
          "name": "_tokenId",
          "type": "uint256"
        }
      ],
      "name": "tokenURI",
      "outputs": [
        {
          "internalType": "string",
          "name": "",
          "type": "string"
        }
      ],
      "stateMutability": "pure",
      "type": "function"
    },
    {
      "inputs": [
        {
          "internalType": "address",
          "name": "from",
          "type": "address"
        },
        {
          "internalType": "address",
          "name": "to",
          "type": "address"
        },
        {
          "internalType": "uint256",
          "name": "tokenId",
          "type": "uint256"
        }
      ],
      "name": "transferFrom",
      "outputs": [],
      "stateMutability": "nonpayable",
      "type": "function"
    }
  ],
  "bytecode": "0x60806040523480156200001157600080fd5b506040518060400160405280600e81526020016d4b657a6179612053746f7261676560901b8152506040518060400160405280600381526020016225a2ad60e91b815250816000908162000066919062000128565b50600162000075828262000128565b5050600060065550620001f4565b634e487b7160e01b600052604160045260246000fd5b600181811c90821680620000ae57607f821691505b602082108103620000cf57634e487b7160e01b600052602260045260246000fd5b50919050565b601f8211156200012357600081815260208120601f850160051c81016020861015620000fe5750805b601f850160051c820191505b818110156200011f578281556001016200010a565b5050505b505050565b81516001600160401b0381111562000144576200014462000083565b6200015c8162000155845462000099565b84620000d5565b602080601f8311600181146200019457600084156200017b5750858301515b600019600386901b1c1916600185901b1785556200011f565b600085815260208120601f198616915b82811015620001c557888601518255948401946001909101908401620001a4565b5085821015620001e45787850151600019600388901b60f8161c191681555b5050505050600190811b01905550565b6119ab80620002046000396000f3fe608060405234801561001057600080fd5b50600436106101375760003560e01c806395d89b41116100b8578063cc6c1a5e1161007c578063cc6c1a5e14610282578063d082e38114610297578063e985e9c5146102a0578063f524c151146102b3578063fd32dd9e146102c6578063ff24b5d5146102ef57600080fd5b806395d89b411461022e578063a22cb46514610236578063b29c489614610249578063b88d4fde1461025c578063c87b56dd1461026f57600080fd5b806342842e0e116100ff57806342842e0e146101cc57806355f804b3146101df5780636352211e146101f257806370a08231146102055780638ada066e1461022657600080fd5b806301ffc9a71461013c57806306fdde0314610164578063081812fc14610179578063095ea7b3146101a457806323b872dd146101b9575b600080fd5b61014f61014a366004611233565b610304565b60405190151581526020015b60405180910390f35b61016c610356565b60405161015b91906112a7565b61018c6101873660046112ba565b6103e8565b6040516001600160a01b03909116815260200161015b565b6101b76101b23660046112ef565b61040f565b005b6101b76101c7366004611319565b610529565b6101b76101da366004611319565b61055a565b6101b76101ed3660046113e1565b610575565b61018c6102003660046112ba565b610585565b61021861021336600461142a565b6105e5565b60405190815260200161015b565b600654610218565b61016c61066b565b6101b7610244366004611445565b61067a565b6101b76102573660046112ba565b610685565b6101b761026a366004611481565b610703565b61016c61027d3660046112ba565b61073b565b61028a610772565b60405161015b91906114fd565b61021860065481565b61014f6102ae366004611541565b6107d2565b6102186102c13660046112ef565b610800565b61018c6102d43660046112ba565b6009602052600090815260409020546001600160a01b031681565b6102f7610831565b60405161015b9190611574565b60006001600160e01b031982166380ac58cd60e01b148061033557506001600160e01b03198216635b5e139f60e01b145b8061035057506301ffc9a760e01b6001600160e01b03198316145b92915050565b6060600080546103659061161b565b80601f01602080910402602001604051908101604052809291908181526020018280546103919061161b565b80156103de5780601f106103b3576101008083540402835291602001916103de565b820191906000526020600020905b8154815290600101906020018083116103c157829003601f168201915b5050505050905090565b60006103f3826109dd565b506000908152600460205260409020546001600160a01b031690565b600061041a82610585565b9050806001600160a01b0316836001600160a01b03160361048c5760405162461bcd60e51b815260206004820152602160248201527f4552433732313a20617070726f76616c20746f2063757272656e74206f776e656044820152603960f91b60648201526084015b60405180910390fd5b336001600160a01b03821614806104a857506104a881336107d2565b61051a5760405162461bcd60e51b815260206004820152603d60248201527f4552433732313a20617070726f76652063616c6c6572206973206e6f7420746f60448201527f6b656e206f776e6572206f7220617070726f76656420666f7220616c6c0000006064820152608401610483565b6105248383610a3f565b505050565b6105333382610aad565b61054f5760405162461bcd60e51b815260040161048390611655565b610524838383610b0c565b61052483838360405180602001604052806000815250610703565b600761058182826116f0565b5050565b6000818152600260205260408120546001600160a01b0316806103505760405162461bcd60e51b8152602060048201526018602482015277115490cdcc8c4e881a5b9d985b1a59081d1bdad95b88125160421b6044820152606401610483565b60006001600160a01b03821661064f5760405162461bcd60e51b815260206004820152602960248201527f4552433732313a2061646472657373207a65726f206973206e6f7420612076616044820152683634b21037bbb732b960b91b6064820152608401610483565b506001600160a01b031660009081526003602052604090205490565b6060600180546103659061161b565b610581338383610c70565b61069133600654610d3e565b336000908152600a60209081526040808320600654815460018101835591855293839020019290925581516060810190925260308083526106e89291611946908301396006546106e29060016117b0565b83610d58565b6001600660008282546106fb91906117b0565b909155505050565b61070d3383610aad565b6107295760405162461bcd60e51b815260040161048390611655565b61073584848484610d9f565b50505050565b6060600061074883610dd2565b90508060405160200161075b91906117d1565b604051602081830303815290604052915050919050565b336000908152600a60209081526040918290208054835181840281018401909452808452606093928301828280156103de57602002820191906000526020600020905b8154815260200190600101908083116107b5575050505050905090565b6001600160a01b03918216600090815260056020908152604080832093909416825291909152205460ff1690565b600a602052816000526040600020818154811061081c57600080fd5b90600052602060002001600091509150505481565b60606008805480602002602001604051908101604052809291908181526020016000905b828210156109d457838290600052602060002090600502016040518060a0016040529081600082015481526020016001820180546108929061161b565b80601f01602080910402602001604051908101604052809291908181526020018280546108be9061161b565b801561090b5780601f106108e05761010080835404028352916020019161090b565b820191906000526020600020905b8154815290600101906020018083116108ee57829003601f168201915b505050505081526020016002820180546109249061161b565b80601f01602080910402602001604051908101604052809291908181526020018280546109509061161b565b801561099d5780601f106109725761010080835404028352916020019161099d565b820191906000526020600020905b81548152906001019060200180831161098057829003601f168201915b5050509183525050600382015460208083019190915260049092015460ff1615156040909101529082526001929092019101610855565b50505050905090565b6000818152600260205260409020546001600160a01b0316610a3c5760405162461bcd60e51b8152602060048201526018602482015277115490cdcc8c4e881a5b9d985b1a59081d1bdad95b88125160421b6044820152606401610483565b50565b600081815260046020526040902080546001600160a01b0319166001600160a01b0384169081179091558190610a7482610585565b6001600160a01b03167f8c5be1e5ebec7d5bd14f71427d1e84f3dd0314c0f7b2291e5b200ac8c7c3b92560405160405180910390a45050565b600080610ab983610585565b9050806001600160a01b0316846001600160a01b03161480610ae05750610ae081856107d2565b80610b045750836001600160a01b0316610af9846103e8565b6001600160a01b0316145b949350505050565b826001600160a01b0316610b1f82610585565b6001600160a01b031614610b455760405162461bcd60e51b81526004016104839061182f565b6001600160a01b038216610ba75760405162461bcd60e51b8152602060048201526024808201527f4552433732313a207472616e7366657220746f20746865207a65726f206164646044820152637265737360e01b6064820152608401610483565b826001600160a01b0316610bba82610585565b6001600160a01b031614610be05760405162461bcd60e51b81526004016104839061182f565b600081815260046020908152604080832080546001600160a01b03199081169091556001600160a01b0387811680865260038552838620805460001901905590871680865283862080546001019055868652600290945282852080549092168417909155905184937fddf252ad1be2c89b69c2b068fc378daa952ba7f163c4a11628f55a4df523b3ef91a4505050565b816001600160a01b0316836001600160a01b031603610cd15760405162461bcd60e51b815260206004820152601960248201527f4552433732313a20617070726f766520746f2063616c6c6572000000000000006044820152606401610483565b6001600160a01b03838116600081815260056020908152604080832094871680845294825291829020805460ff191686151590811790915591519182527f17307eab39ab6107e8899845ad3d59bd9653f200f220920489ca2b5937696c31910160405180910390a3505050565b610581828260405180602001604052806000815250610e65565b610524838383604051602401610d7093929190611874565b60408051601f198184030181529190526020810180516001600160e01b031663969cdd0360e01b179052610e98565b610daa848484610b0c565b610db684848484610eb9565b6107355760405162461bcd60e51b815260040161048390611899565b60606000610ddf83610fba565b600101905060008167ffffffffffffffff811115610dff57610dff611355565b6040519080825280601f01601f191660200182016040528015610e29576020820181803683370190505b5090508181016020015b600019016f181899199a1a9b1b9c1cb0b131b232b360811b600a86061a8153600a8504945084610e3357509392505050565b610e6f8383611092565b610e7c6000848484610eb9565b6105245760405162461bcd60e51b815260040161048390611899565b80516a636f6e736f6c652e6c6f67602083016000808483855afa5050505050565b60006001600160a01b0384163b15610faf57604051630a85bd0160e11b81526001600160a01b0385169063150b7a0290610efd9033908990889088906004016118eb565b6020604051808303816000875af1925050508015610f38575060408051601f3d908101601f19168201909252610f3591810190611928565b60015b610f95573d808015610f66576040519150601f19603f3d011682016040523d82523d6000602084013e610f6b565b606091505b508051600003610f8d5760405162461bcd60e51b815260040161048390611899565b805181602001fd5b6001600160e01b031916630a85bd0160e11b149050610b04565b506001949350505050565b60008072184f03e93ff9f4daa797ed6e38ed64bf6a1f0160401b8310610ff95772184f03e93ff9f4daa797ed6e38ed64bf6a1f0160401b830492506040015b6d04ee2d6d415b85acef81000000008310611025576d04ee2d6d415b85acef8100000000830492506020015b662386f26fc10000831061104357662386f26fc10000830492506010015b6305f5e100831061105b576305f5e100830492506008015b612710831061106f57612710830492506004015b60648310611081576064830492506002015b600a83106103505760010192915050565b6001600160a01b0382166110e85760405162461bcd60e51b815260206004820181905260248201527f4552433732313a206d696e7420746f20746865207a65726f20616464726573736044820152606401610483565b6000818152600260205260409020546001600160a01b03161561114d5760405162461bcd60e51b815260206004820152601c60248201527f4552433732313a20746f6b656e20616c7265616479206d696e746564000000006044820152606401610483565b6000818152600260205260409020546001600160a01b0316156111b25760405162461bcd60e51b815260206004820152601c60248201527f4552433732313a20746f6b656e20616c7265616479206d696e746564000000006044820152606401610483565b6001600160a01b038216600081815260036020908152604080832080546001019055848352600290915280822080546001600160a01b0319168417905551839291907fddf252ad1be2c89b69c2b068fc378daa952ba7f163c4a11628f55a4df523b3ef908290a45050565b6001600160e01b031981168114610a3c57600080fd5b60006020828403121561124557600080fd5b81356112508161121d565b9392505050565b60005b8381101561127257818101518382015260200161125a565b50506000910152565b60008151808452611293816020860160208601611257565b601f01601f19169290920160200192915050565b602081526000611250602083018461127b565b6000602082840312156112cc57600080fd5b5035919050565b80356001600160a01b03811681146112ea57600080fd5b919050565b6000806040838503121561130257600080fd5b61130b836112d3565b946020939093013593505050565b60008060006060848603121561132e57600080fd5b611337846112d3565b9250611345602085016112d3565b9150604084013590509250925092565b634e487b7160e01b600052604160045260246000fd5b600067ffffffffffffffff8084111561138657611386611355565b604051601f8501601f19908116603f011681019082821181831017156113ae576113ae611355565b816040528093508581528686860111156113c757600080fd5b858560208301376000602087830101525050509392505050565b6000602082840312156113f357600080fd5b813567ffffffffffffffff81111561140a57600080fd5b8201601f8101841361141b57600080fd5b610b048482356020840161136b565b60006020828403121561143c57600080fd5b611250826112d3565b6000806040838503121561145857600080fd5b611461836112d3565b91506020830135801515811461147657600080fd5b809150509250929050565b6000806000806080858703121561149757600080fd5b6114a0856112d3565b93506114ae602086016112d3565b925060408501359150606085013567ffffffffffffffff8111156114d157600080fd5b8501601f810187136114e257600080fd5b6114f18782356020840161136b565b91505092959194509250565b6020808252825182820181905260009190848201906040850190845b8181101561153557835183529284019291840191600101611519565b50909695505050505050565b6000806040838503121561155457600080fd5b61155d836112d3565b915061156b602084016112d3565b90509250929050565b60006020808301818452808551808352604092508286019150828160051b87010184880160005b8381101561160d57603f19898403018552815160a08151855288820151818a8701526115c98287018261127b565b91505087820151858203898701526115e1828261127b565b60608481015190880152608093840151151593909601929092525050938601939086019060010161159b565b509098975050505050505050565b600181811c9082168061162f57607f821691505b60208210810361164f57634e487b7160e01b600052602260045260246000fd5b50919050565b6020808252602d908201527f4552433732313a2063616c6c6572206973206e6f7420746f6b656e206f776e6560408201526c1c881bdc88185c1c1c9bdd9959609a1b606082015260800190565b601f82111561052457600081815260208120601f850160051c810160208610156116c95750805b601f850160051c820191505b818110156116e8578281556001016116d5565b505050505050565b815167ffffffffffffffff81111561170a5761170a611355565b61171e81611718845461161b565b846116a2565b602080601f831160018114611753576000841561173b5750858301515b600019600386901b1c1916600185901b1785556116e8565b600085815260208120601f198616915b8281101561178257888601518255948401946001909101908401611763565b50858210156117a05787850151600019600388901b60f8161c191681555b5050505050600190811b01905550565b8082018082111561035057634e487b7160e01b600052601160045260246000fd5b7f68747470733a2f2f746573746e65742e7461626c656c616e642e6e6574776f7281526f6b2f7461626c65732f3436392f69642f60801b602082015260008251611822816030850160208701611257565b9190910160300192915050565b60208082526025908201527f4552433732313a207472616e736665722066726f6d20696e636f72726563742060408201526437bbb732b960d91b606082015260800190565b606081526000611887606083018661127b565b60208301949094525060400152919050565b60208082526032908201527f4552433732313a207472616e7366657220746f206e6f6e20455243373231526560408201527131b2b4bb32b91034b6b83632b6b2b73a32b960711b606082015260800190565b6001600160a01b038581168252841660208201526040810183905260806060820181905260009061191e9083018461127b565b9695505050505050565b60006020828403121561193a57600080fd5b81516112508161121d56fe46696c65206372656174656420772f20746f6b656e496420257320616e6420636861726163746572496e646578202573a2646970667358221220836b40d7475da0ce18a64149c763a45ad1e930556f65c0f547c6626d39304ed364736f6c63430008110033",
  "linkReferences": {},
  "deployedLinkReferences": {}
}